:020000040000fa
:08000000c01404000000000020
:020000040000fa
:1000080004140000081400000c1400001014000070
:1000180014140000bc140000bc140000bc14000040
:10002800181400001c140000201400002414000000
:10003800bc140000281400002c1400003014000028
:1000480034140000381400003c1400004014000070
:100058004414000048140000bc140000bc14000044
:100068004c140000501400005414000058140000f0
:100078005c140000bc140000bc140000bc14000098
:10008800bc14000060140000641400006814000030
:100098006c14000070140000741400007814000040
:1000a8007c14000080140000bc140000bc14000084
:1000b800bc14000084140000881400008c14000094
:1000c800bc14000090140000bc140000bc14000014
:1000d800bc14000094140000bc140000bc14000000
:1000e800bc140000981400009c140000bc1400000c
:1000f800bc140000bc140000bc140000bc140000b8
:10010800bc140000bc140000bc140000bc140000a7
:10011800bc140000bc140000a0140000bc140000b3
:10012800bc140000a4140000a8140000ac140000c3
:10013800bc140000bc140000bc140000bc14000077
:10014800b0140000bc140000bc140000bc14000073
:10015800bc140000b4140000bc140000bc1400005f
:10016800bc140000bc140000bc140000bc14000047
:10017800bc140000bc140000b8140000bc1400003b
:10018800bc140000bc140000bc140000bc14000027
:10019800bc140000bc140000bc140000bc14000017
:1001a800bc140000bc140000bc140000bc14000007
:1001b800bc140000bc140000bc140000bc140000f7
:1001c800bc140000bc140000bc140000bc140000e7
:1001d800bc140000bc140000bc140000bc140000d7
:1001e800bc140000bc140000bc140000bc140000c7
:0801f800bc140000bc1400005f
:020000040000fa
:10280000c0140400000000006a2e04000000000054
:102810003a2e040000000000402e040000000000da
:10282000462e0400000000004c2e040000000000b2
:102830006a2e0400000000006a2e04000000000060
:102840006a2e040000000000322e04000000000088
:102850006a2e0400000000006a2e04000000000040
:102860006a2e0400000000006a2e04000000000030
:102870006a2e0400000000006a2e04000000000020
:102880006a2e0400000000006a2e04000000000010
:102890006a2e0400000000006a2e04000000000000
:1028a0006a2e0400000000006a2e040000000000f0
:1028b000bc2d0400000000006a2e0400000000008f
:1028c0006a2e0400000000006a2e040000000000d0
:1028d0006a2e0400000000006a2e040000000000c0
:1028e0006a2e0400000000006a2e040000000000b0
:1028f0006a2e0400000000006a2e040000000000a0
:102900006a2e0400000000006a2e0400000000008f
:102910006a2e0400000000006a2e0400000000007f
:102920006a2e0400000000006a2e0400000000006f
:102930006a2e0400000000006a2e0400000000005f
:102940006a2e0400000000006a2e0400000000004f
:102950006a2e0400000000006a2e0400000000003f
:102960006a2e0400000000006a2e0400000000002f
:102970006a2e0400000000006a2e0400000000001f
:020000040000fa
:102980006f7d21000e7f22000e01880000000000f4
:102990000c000700808422000100200011000700c5
:1029a000000020000000e0000200320000000200f1
:1029b000000000002a2d0200000000000040da00a4
:1029c0000000fe004440a900801520000000e00047
:1029d0000300320000002000a00188004440a8004d
:1029e0000000060091018800800078000000eb00e4
:1029f00015003700e280400032a0b4009101ba0017
:102a0000e280400032a0b4009102ba00e2804000af
:102a100032a0b4000002eb00472bde00f507b20045
:102a2000602ce10004003a000059eb008301e9004a
:102a3000fdff3e00040037006128e1000100320084
:102a40000082eb00040007001101ba000200e00060
:102a5000e8ff3a00000006003159ba008301e9009e
:102a60000c0032002159ba008301e900080032004d
:102a70000400e00003003a00e280400032a0b4000d
:102a8000f5ff370011d9ba008301e900faff3a00d7
:102a90008100e800e180400032a0b40000000600a0
:082aa00000000000000000002e
:020000040000fa
:102aa8006279000074650000732000003c2000007b
:102ab8004d410000585f00004d4500004d4f00009b
:102ac80052590000006500006d4d0000616c000067
:102ad8006c6f0000632e00006300000030000000ef
:102ae800286200006c6f0000636b0000202b000060
:102af80020730000697a0000656f000066280000f6
:102b0800736900007a6500005f74000029200000e6
:102b18002b20000062790000746500007329000012
:102b2800203c000020280000656d0000486500007a
:102b380061700000202b0000204d0000415800006b
:102b48005f4d0000454d00004f520000592900001c
:102b580000780000203c000020750000736500002c
:102b6800644200006c6f0000636b0000730000009b
:102b7800626c00006f6300006b2000003e3d0000a7
:102b8800206500006d4800006561000070200000ad
:102b980026260000206200006c6f0000636b0000b6
:102ba800203c00003d200000286500006d48000022
:102bb80065610000702000002b2000004d410000de
:102bc800585f00004d4500004d4f0000525900006d
:102bd80029000000626900006e4300006f70000069
:102be8006965000073280000636f00006c6c0000ca
:102bf80054720000656500002c2000002663000068
:102c08006f6c00006c5000006f6900006e7400006b
:102c18005b7800005d290000203c00003d2000009a
:102c280030000000676100006d6500002f6700003c
:102c3800616d0000652e0000630000002172000035
:102c480065730000756c0000740000006375000077
:102c5800727200000070000061720000656e000072
:102c680074200000213d0000206300006869000016
:102c78006c64000000000000782000003c20000088
:102c8800313200003820000026260000207800009d
:102c9800203e00003d20000030000000446f00008e
:102ca800676d0000313200003878000036340000cb
:102cb8002f6400006f6700006d4200007566000019
:102cc80066650000722e0000630000007920000095
:102cd8003c2000003634000020260000262000009a
:102ce800792000003e3d0000203000000000000078
:102cf800782000003c200000736900007a6500001d
:102d08000075000073650000722e0000630000006b
:102d180041730000736500007274000020460000d3
:102d2800616900006c650000643a0000004600001c
:102d3800696c0000653a0000004c0000696e0000f4
:102d4800653a0000000000000100000005000000d6
:020000040000fa
:102d58000800fa0020079800310798002e0090001c
:102d6800000f78003e009000100798001e007800c1
:102d7800900078001e00900010007800808f5000ae
:102d880002003d000080eb00190037001e007800ab
:102d9800900078001e00900010007800808f50008e
:102da8000200340010002000110037001e007800d7
:102db800900090001e00900010009000808f50003e
:102dc80002003d000080eb00090037001e0078007b
:102dd800900090001e00900010009000808f50001e
:102de8000200340010002000010037000000eb0052
:102df8000080fa00000006000800fa00300798007a
:102e08003e009000b0009000210798000000eb0001
:102e1800000f7800570037001e0078006600b900e0
:102e280000007800ae00900000804000be009000d6
:102e3800210098001e0078006600b90000007800a4
:102e4800ae00900000804000be0090009100780025
:102e58009e804000010878001e0078006600b900d6
:102e680000007800ae00900000804000be00900096
:102e780091009000110098003e00900050009000d2
:102e88001e0040006600b90000007800ae00900007
:102e980000804000be009000210098003e00900095
:102ea800500090001e0040006600b9000000780045
:102eb800ae00900000804000be00900091007800b5
:102ec8009e804000010878003e009000500090006d
:102ed8001e0040006600b90000007800ae009000b7
:102ee80000804000be00900011019000be009000dc
:102ef800c1009000810041008100e90011009800a4
:102f08001e0078006600b90000007800ae0090004e
:102f1800008140001e0078006600b90000007800bb
:102f2800ae0090008080400090be80003e07070001
:102f38003e009000500090001e0040006600b9005e
:102f480000007800ae009000008140003e00900034
:102f5800500090001e0040006600b9000000780094
:102f6800ae0090008080400090be80002e070700d1
:102f78001e0fe8003e009000500090009e0f500089
:102f8800a5ff3c003e00900050009000000040006b
:102f9800000f78000000eb00100798007100370060
:102fa8001e0090001e0040006600b9000000780076
:102fb800ae00900000804000be0090002100980004
:102fc8001e0090001e0040006600b9000000780056
:102fd800ae00900000804000be0090009100780094
:102fe800010878001e0090001e0040006600b9002d
:102ff80000007800ae00900000804000be00900005
:10300800110190009e009000810041008100e800bd
:10301800110098001e0090009e0040003e009000a5
:1030280040009000008040006600b9000000780071
:103038006c005000ae00900000804000be00900080
:10304800210098001e0090009e0040003e00900065
:1030580040009000008040006600b9000000780041
:103068006c005000ae00900000804000be00900050
:1030780011017800be009000d1009000810041004d
:103088008100e900010878001e0090009e004000c1
:103098003e00900040009000008040006600b900ab
:1030a800000078006c005000ae00900000804000e6
:1030b800be009000110190009e0090008100410028
:1030c8008100e800110098001e0090001e004000da
:1030d8006600b90000007800ae0090000081400052
:1030e8001e0090001e0040006600b9000000780035
:1030f800ae0090008080400090be8000ca060700a5
:103108001e0090009e0040003e009000400090008d
:10311800008040006600b900000078006c00500094
:10312800ae009000008140001e0090009e0040000c
:103138003e00900040009000008040006600b9000a
:10314800000078006c005000ae00900080804000c5
:1031580090be8000b40607001e0090000000e80042
:10316800100798003e009000400090008080e90021
:103178001e009000808f500089ff3c000080fa00fc
:10318800000006000600fa00200798002e009000b4
:10319800b0009000110798002e0090009000780071
:1031a8001e009000010878002e009000900090000a
:1031b8002e0090004001900020002000800178003f
:1031c800811f7800110009000301d800010178006f
:1031d800cf007800808040002e00900040019000d1
:1031e8002000200000027800811f780011000900eb
:1031f8000401d8000001780001007800cf007800b1
:10320800808040001e009000110098001e00900071
:1032180066004000ae00900011017800ae009000fa
:10322800d10190002100200001027800801f780061
:10323800110009008401d80081017800800078001d
:103248004f00780001014100ae009000d1019000cc
:103258002100200001027800801f78001100090079
:103268008401d800800178004f0078008100410077
:10327800010878001e00900066004000ae00900033
:1032880091009000110098001e0090006c00400012
:10329800ae00900011017800ae009000d1019000be
:1032a8002100200001027800801f78001100090029
:1032b8008401d80081017800800078004f007800f0
:1032c80001014100ae009000d101900021002000d2
:1032d80001027800801f7800110009008401d800dd
:1032e800800178004f0078008100410001087800d3
:1032f8001e0090006c004000ae009000110190008c
:10330800ae009000c1009000810041008100e900fa
:10331800110098001e00900072004000ae0090005e
:10332800d10090008100e900010878001e0090009b
:1033380072004000ae009000410190002100200082
:1033480081017800801f7800110009000301d8006e
:1033580001017800800078004f00780001017800b2
:10336800ae009000c1019000210020000102780009
:10337800801f7800110009008401d80080017800be
:103388004f00780081004100110098000000eb0018
:10339800000f7800140037001e0078006600b9009e
:1033a800000078009e00900000804000ae00900071
:1033b800210098001e0078006600b900000078001f
:1033c8009e009000008140001e0078006600b90051
:1033d800000078009e0090008080400090be800031
:1033e800110607001e0fe8001e007800e30f5000ca
:1033f800e9ff34000080fa00000006000a00fa0025
:103408001007980021079800320798004307980092
:10341800c0002000e6030700000f78001e007800b7
:10342800be009000410098001e007800ce00900079
:10343800510098001e0078009e0090000108780056
:103448001e007800ae009000110098001e00780061
:103458009e007800210098001e007800d00090009f
:103468001e007800400090000080e90000804000c5
:103478006c00b90000007800cd03070080007800d8
:103488001e007800310098001e0078005afe0700e0
:103498001e0078000080fa00000006000e00fa0006
:1034a80020079800310798004207980053079800b2
:1034b8006407980000012000bd030700000f780092
:1034c8001e007800100798001e009000ce009000a3
:1034d800410098001e009000de0090005100980006
:1034e80080012000b2030700800078001e009000d1
:1034f800310098001e007800ee00900071009800de
:103508001e00780011002000610098001e0078005d
:103518000080fa00000006000600fa001007980074
:10352800210798000000eb00000f78000e0037001c
:103538001e0078006600b900000078009e00900028
:103548008080400090be80008e050700e00f50008c
:1035580004003400e25e2900a10720006061290010
:10356800f90807001e0fe8002e0090009e00780062
:10357800808f5000eeff39000000eb000080fa0059
:10358800000006000800fa00300798003e0090008e
:1035980090007800110798003e009000900090007d
:1035a800210798000000eb00000f78001100370099
:1035b8003e009000300190001e0078006600b900bf
:1035c8000000780000004100100190003e009000cb
:1035d800b00190001e0078006600b9000000780075
:1035e800008041001000780082007800be070700c4
:1035f8001e0fe8003e009000d00090003e009000b2
:10360800400090000080e900008040000000400079
:103618009e0f5000e6ff3c000080fa000000060004
:103628000800fa00300798003e00900090007800eb
:10363800110798003e009000900090002107980024
:103648000000eb00000f7800110037003e009000ea
:10365800300190001e0078006600b9000000780074
:1036680000004100100190003e009000b001900061
:103678001e0078006600b900000078000080410054
:103688001000780082007800d30707001e0fe800ba
:103698003e009000d00090003e0090004000900056
:1036a8000080e90000804000000040009e0f5000ac
:1036b800e6ff3c000080fa00000006001000fa0057
:1036c8004007980051079800620798007307980010
:1036d8000000eb00000f78001b0037001e00780088
:1036e8006600b90000007800ce009000008040001d
:1036f8001001be001207980023079800a00190004f
:10370800330798009e0090006e00900000804000f3
:1037180010079800ae0090007e00900000804000e6
:10372800200798001e0078006600b90000007800a5
:10373800ce0090008080400090be80000e81e8009e
:10374800600007001e0fe8009e0078005e009000f1
:10375800808f5000e1ff39000080fa000000060069
:103768000800fa00300798003e009000100078002a
:10377800e00f5000270034003e009000a8ff07002b
:103788003e0090001001be00028fbe00a001900014
:10379800230798003e009000100078008000e900a0
:1037a8003e009000010878003e009000d000900094
:1037b8003e009000400090000080e900008040003a
:1037c80000004000800078003e009000300090002b
:1037d8008001eb000081eb00b8ff07003e0090007d
:1037e800d00090003e009000400090000080e9006a
:1037f8000080400000004000800078003e009000fb
:103808003000900044ff07003e0090005dff070075
:1038180001003700000000000080fa0000000600e8
:103828000800fa00300798003e00900090007800e9
:103838003e0090005000900080804000f00720007b
:10384800808f50001c003c003e00900074ff070071
:103858003e0090001001be00028fbe00a001900043
:10386800230798003e009000100078008000e800d0
:103878003e009000010878003e009000d0009000c3
:103888003e009000400090000080e9000080400069
:1038980000004000800078003e009000300090005a
:1038a8008001eb001200200084ff07003e0090001a
:1038b80034ff070001003700000000000080fa0014
:1038c800000006001800fa00100f9800210f980059
:1038d800320f98000000eb00000f78000000eb00aa
:1038e800100798001e08900090009000210798008b
:1038f800790037001e089000100178002e00900013
:1039080010009000800078002e089000020001004e
:10391800000f78001e007800e00f500062003a00a7
:103928002e00900030009000e00f50000d00320093
:103938002e00900010009000a00090002e0890002b
:1039480020009000808f5000060032002e0090006a
:10395800100798002e009000b000900021079800f2
:103968005d0037002e009000900078003107980025
:103978002e00900090009000410798002e009000c3
:1039880020009000e00f500004003a002e00900044
:1039980030009000e00f50001b0032001e00900025
:1039a800e00f500009003a002e009000300090000f
:1039b800e00f500005003a002e009000a000900093
:1039c8001e089000110098001e003700ae009000fd
:1039d8001e00900005050700500798005e00900043
:1039e800900078002e009000010878005e0090009a
:1039f800900090002e009000110098005e0090004a
:103a0800200798000f0037001e009000e00f5000bc
:103a18000c0032001e009000a00090002e009000c4
:103a2800808f500004003a001e0090008000eb00d8
:103a380021009800030037001e0090008000eb0072
:103a4800310098002e009000be0090000108780018
:103a58002e009000ce009000110098004e009000bb
:103a680060079800be089000710798007e009000db
:103a7800900078006e009000010878007e009000a9
:103a8800900090006e009000110098002e009000a9
:103a98008000eb00210098002e0090008000eb00d1
:103aa800310098000f0037002e0090001007980092
:103ab8001e007800e00f500004003d002e0090002a
:103ac800a000900021079800030037002e00900006
:103ad800b0009000210798002e009000e00f5000e1
:103ae80084ff3a001e007800e00f50000400320006
:103af8002262290011132000606129009207070043
:103b08002e009000e00f500004003a00a262290045
:103b180021132000606129008b0707002e00900008
:103b2800000f98001e089000900090002107980050
:103b38001b0037001e089000100178002e0090002e
:103b4800900090000e089000100090000200010004
:103b5800000f78002e009000100798001e007800d3
:103b6800e00f500004003a002e009000b0009000d2
:103b7800210798000a0037001e007800e00f500067
:103b880004003d002e009000a0009000210798003e
:103b9800030037002e009000b00090002107980025
:103ba8002e009000e00f5000e2ff3a009e009000c7
:103bb8000e089000808f500004003a00f26229003d
:103bc80031142000606129005f0707001e0078009b
:103bd800e00f500004003d001e0090008e08900089
:103be80021009800030037001e0090008e08900006
:103bf800310098000080fa00000006000000fa007a
:103c0800c06a2100d203070090be88000080fa0035
:103c1800000006000200fa00004f780011479800e3
:103c2800cda2a900cd22a800cdc2a90000c4b3002e
:103c38003400070010cab3003200070000ccb300fc
:103c48003000070060cab3002e00070020cab30086
:103c58002c000700f0c2b3002a00070080cfb30091
:103c6800280007000040eb002600070070c2b300e0
:103c7800240007001e407800220007001e40900024
:103c880020000700c0cab3001e0007000040eb0078
:103c98001c000700f0cab3001a0007000080fa00f1
:103ca800000006000400fa00204798000040eb00de
:103cb800004f78000040eb00004f78000c00370000
:103cc8002e409000e04f500002003d00cde2a800d9
:103cd80001003700cde2a900cdc2a8002e40900017
:103ce8000040400020479800cdc2a9001e4fe800c0
:103cf8001e407800e74f5000f1ff34000080fa00c2
:103d0800000006000200fa00004f7800cdc2a900aa
:103d1800cda2a900cd22a9001e407800e1ff07002e
:103d2800cd22a8000080fa00000006000200fa0078
:103d3800004f7800cdc2a900cda2a800cd22a900cd
:103d48001e407800d7ff0700cd22a8000080fa00a7
:103d5800000006000400fa00601680004e00de0035
:103d68006140600020479800601680004f00de0028
:103d7800004078003047980000cbb300004f78002f
:103d88000040eb00104798001e4078007f010700b4
:103d98000040eb006f010700100037000040eb0007
:103da80010479800050037000040eb00dfff0700d0
:103db8001e4090000040e800104798001e40900008
:103dc800e04f5000f8ff3d001e4fe8001e4078000d
:103dd800ccff07000040eb005e01070070cbb3008a
:103de8009e40780080cf5000ecff36002e409000b7
:103df800614060000080fb00610060004e00dd0053
:103e080062168000f1ff2b008100610000807000c5
:103e1800601688003e409000614060000080fb0012
:103e28004f00dd0062168000f1ff2700810061006d
:103e380000807000601688000080fa00000006000c
:103e48000e00fa0040079800510798006207980092
:103e58000000eb00000f78000000eb00100798004e
:103e680000cbb30040479800601680004e00de008b
:103e78006140600050479800601680004f00de00e7
:103e880000407800604798004e4090009dff070072
:103e98000040eb002f0107000000eb00000f780046
:103ea8001a0037000000eb00100798000b003700dd
:103eb8001e0078004700dd00ce00900080804000a2
:103ec8001e009000008040001040780097ff070017
:103ed8001e0090000000e800100798009e00900067
:103ee8006e009000808f5000f1ff35004e4090002a
:103ef8000040e800404798004e40900081ff0700ce
:103f08000040eb00130107001e0fe8005e00900060
:103f18009e007800808f5000e2ff35005e409000e0
:103f2800614060000080fb00610060004e00dd0021
:103f380062168000f1ff2b00810061000080700094
:103f4800601688006e409000614060000080fb00b1
:103f58004f00dd0062168000f1ff2700810061003c
:103f680000807000601688000080fa0000000600db
:103f78000a00fa00200798006147980072479800e5
:103f8800034f9800144f98007e409000004f78002f
:103f9800601680004e00de00614060001047980007
:103fa800601680004f00de0000407800204798002f
:103fb800180037006e409000f40007007e40900023
:103fc800e40007007e419000024f78000a003700a5
:103fd8006e4090000080fb004700dd00ae009000be
:103fe800808040001e4178000280fb00614078001c
:103ff8004eff07001e4fe8001e4890009e407800c4
:1040080080cf5000f2ff39006e4090000040e80079
:1040180060479800ee4090000e48900080cf500016
:10402800e4ff39001e409000614060000080fb0002
:10403800610060004e00dd0062168000f1ff2b0079
:104048008100610000807000601688002e4090009a
:10405800614060000080fb004f00dd0062168000b8
:10406800f1ff270081006100008070006016880061
:104078000080fa00000006000c00fa0040079800d3
:10408800510798000000eb00000f78000000eb00db
:10409800100798000040eb004047980000cbb300a1
:1040a80050479800601680004e00de0061406000b6
:1040b80060479800601680004f00de0000407800de
:1040c800704798005e4090000eff07000040eb002c
:1040d800a00007000000eb00000f7800190037006f
:1040e8000040eb00404798000b0037001e0090008e
:1040f800ce00900000804000104078000bff0700c1
:104108001e0090000000e800100798004e40900044
:104118000040e800404798004e409000e04f5000b3
:10412800f2ff3d005e4090000040e80050479800d4
:104138005e409000f3fe07000040eb00850007009a
:104148001e0fe8005e0090009e007800808f5000ef
:10415800e3ff35006e409000614060000080fb0086
:10416800610060004e00dd0062168000f1ff2b0048
:104178008100610000807000601688007e40900019
:10418800614060000080fb004f00dd006216800087
:10419800f1ff270081006100008070006016880030
:1041a8000080fa00000006000c00fa0030079800b2
:1041b800014f9800124f9800234f98000000eb0021
:1041c800000f78000000eb001007980060168000d0
:1041d8004e00de0061406000404798006016800095
:1041e8004f00de0000407800504798002e489000ad
:1041f8000080fb000002b100100798001e0090002c
:104208006700b90000007800100798000e48900079
:104218005e0007001e4890004e0007000000eb00fb
:10422800000f7800090037001e009000be009000c3
:104238000080400010407800bcfe07001e0090007f
:104248000000e800100798001e0fe8001e00780024
:10425800e60f5000f4ff34004e40900061406000cb
:104268000080fb00610060004e00dd0062168000e7
:10427800f1ff2b008100610000807000601688004b
:104288005e409000614060000080fb004f00dd0050
:1042980062168000f1ff2700810061000080700035
:1042a800601688000080fa00000006000a00fa0084
:1042b80020079800614798007247980043079800c4
:1042c8000000eb00000f78000000eb0010079800da
:1042d800180037007e4090000080fb00e700400097
:1042e800e0072000808f5000050034006e409000e9
:1042f8000040e800604798000040eb0070479800d5
:104308001e007800ce009000008040001040780029
:104318001e0fe800804178007e419000ee4090003a
:104328002e009000a0ff07007e40900067404000ec
:10433800704798001e007800ce0090000080400072
:1043480010407800e04f5000e2ff3a000080fa0089
:10435800000006000200fa00004f78001e74a10059
:104368009e4078000180fb004400de000040780099
:104378000044a00063fe07009e4078006fc0600004
:1043880060fe07000080fa00000006000200fa0044
:10439800004f78001e407800674f600000cbb300e4
:1043a8001e40700057fe07000080fa00000006005b
:1043b8000800fa0030079800be009000f07f200047
:1043c800808f50000400360042552900c1012000aa
:1043d800705629005c05070000808000e00f50003f
:1043e8000700320000808000ef0f500004003c00fe
:1043f80011808000f0072000808f500006003400f4
:104408002257290011022000705629004e05070086
:104418000000eb00470037003e0090000080e800f5
:104428006f006000e00f500005003a003e00900069
:104438000080e8004400de001007980005003700ff
:104448003e0090000080e8004400de000000e80024
:104458001007980000808000000f78001e00780088
:10446800e00f50000c0034001e0fe9001e00780019
:1044780080004000400021000080400010007800cb
:1044880090007800f0ff2700808060001e009000f8
:10449800808f5000f1ff3e001e0078008000400031
:1044a800400021000080400090007800210798001b
:1044b8001e0078008000400040002100008040007d
:1044c8001000780090007800f0ff270080806000de
:1044d8001e009000808f50000600310022572900ee
:1044e8005103200070562900170507000000eb0053
:1044f800100037002e0090009e009000b1000700c9
:104508003e0090000080e800ae00900080804000ef
:1045180000002100808f5000040039004257290014
:10452800b103200070562900070507002e009000ef
:104538000080e8000080fa00000006000400fa008d
:10454800100798000000eb00000f7800010037000a
:104558001e0fe8001e007800800040004002210085
:1045680000804000900078001e009000808f50006e
:10457800f7ff3a00108080009e007800808f50007e
:1045880011003500d25a2900310420007056290044
:10459800ed0407000d0037001e00e8008000400011
:1045a8004002210000804000900078001e00780042
:1045b800000140004002210000004100010878008d
:1045c8001e0fe80001003700000000001080800086
:1045d8009e007800808f5000efff3500108080002b
:1045e8000000e900108088000080fa000000060042
:1045f8000400fa00100798000000eb00000f780094
:10460800010037001e0fe8001e00780080004000ff
:104618004000210000804000900078001e009000bb
:10462800808f5000f7ff3a000b0037001e00e800ab
:104638008000400040002100008040009000780089
:104648001e007800000140004000210000004100e9
:10465800010878001e0fe800008080009e007800a6
:10466800808f5000f1ff3500008080000000e900d5
:10467800008088000080fa00000006000400fa00ac
:104688001007980010808000000f78000b0037009a
:104698001e00e90080004000400221000080400028
:1046a800900078001e0078000001400040022100c0
:1046b80000004100010878001e0fe9001e00780084
:1046c800e00f5000080034001e00e90080004000a0
:1046d8004002210000804000900078001e009000f9
:1046e800808f5000eaff31001e00900010009000fb
:1046f800800078001e007800000140004002210080
:104708000000410001087800108080000000e800e7
:10471800108088000080fa00000006000400fa00fb
:104728001007980000808000000f78000b00370009
:104738001e00e90080004000400021000080400089
:10474800900078001e007800000140004000210021
:1047580000004100010878001e0fe9001e007800e3
:10476800e00f50000c0034001e009000900078000c
:1047780000002800808070001e00e9000001400051
:10478800400021000000410010007800100078006f
:10479800808f5000e6ff39009e0090001e007800d0
:1047a800000140004000210000004100010878009d
:1047b800008080000000e800008088000080fa0087
:1047c800000006000600fa0010079800210798006c
:1047d8001e00900086ff07001e00900090007800e1
:1047e8002e0190000000280000007100808f50000a
:1047f800110032002e0090004400dd009e00900061
:10480800008f40001e0078009e0090001100980064
:104818001e009000900078002e00900080805000cc
:1048280000002800808070001e00780001087800d1
:104838001e007800b9ff07001e009000ae0090002f
:10484800010878001e0090008cff07000080fa0025
:10485800000006000a00fa0040079800ce00900009
:1048680000802000808f50000400390000002100e3
:10487800ce009000808f500004003600c25b2900f3
:10488800a1082000705629002f0407004e00900050
:104898000080e900100798001e00900010007800c2
:1048a8004400dd009e009000008040002007980032
:1048b8000000eb00000f7800010037001e0fe80031
:1048c800108080009e007800808f500008003d0016
:1048d8001e00780080004000400221000080400057
:1048e800900078001e009000808f5000f3ff390080
:1048f8001e00e900800040004002210000804000c6
:1049080090007800310798003e009000e00f5000ba
:10491800210032003e00900010007800e00f5000a7
:104928001d003d002e00900010007800e00f5000a0
:104938000b003d003e009000900078002e00900093
:1049480010017800f0ff270000006100808040001f
:104958003e009000010878002e00900024ff070018
:104968003e009000f5fe07003e00900090007800a1
:104978001e00900010007800808040003e009000eb
:10498800010878003e00900019ff07003e009000e3
:1049980062ff0700200037002e009000100078000a
:1049a800e00f50000f003d001e009000be00900078
:1049b800110098001e009000900078002e009000d2
:1049c80010017800f0ff270000006100808040009f
:1049d8001e009000010878002e00900004ff0700d8
:1049e800030037001e009000be00900011009800e0
:1049f8003e009000d1fe07001e0090009000780055
:104a080000002800808070001e00900001087800d7
:104a18001e00900041ff07000080fa000000060019
:104a28000600fa00000f7800110798002207980086
:104a38000b0037002e0090000000e90020079800c6
:104a48009e0078002e009000808040001e0190009b
:104a58002e00900000004100104078008048780047
:104a68002e009000e00f5000f2ff3a000080fa009c
:104a7800000006000600fa00000f780011079800f1
:104a880022079800090037009e0078002e00900049
:104a98000000e900200798002e0090008080400068
:104aa8001e00900000407800804878002e0090009a
:104ab800e00f5000f4ff3a000080fa000000060002
:104ac8000000fa00008020002080880020808000fc
:104ad8000108280001087800208080008000eb0091
:104ae8001100980010002000008088000000eb00f2
:104af800108088000080fa00000006000600fa0016
:104b080010079800210798008000200028fe070061
:104b1800000f78001e0078009e00900001087800c1
:104b28001e007800ae009000110098001e0078006a
:104b38008000eb00310098001e007800b000900063
:104b48001e007800210098000080fa00000006008e
:104b58000400fa00100798004000200014fe070027
:104b6800000f78001e0078009e0090000108780071
:104b78001e0078008000eb00110098000080fa0009
:104b8800000006000a00fa00300798004107980064
:104b98000080eb00000f78003e009000900090002d
:104ba800110798001a0037003e00900010017800a5
:104bb8001e00900010009000800078004e009000c9
:104bc80002000100200798002e009000e00f50001e
:104bd80005003a001e009000b000900011079800f0
:104be8001e0fe8000a0037002e009000e00f50006a
:104bf80004003d001e009000a000900011079800de
:104c0800030037001e009000b000900011079800c4
:104c18001e009000e00f5000e3ff3a001e007800ed
:104c28000080fa00000006000c00fa003007980027
:104c380041079800520798003e009000100090002d
:104c4800e00f500007003a00de0090004e00900090
:104c5800aaff0700be0090009000980010002000f6
:104c68003b0037000000eb00000f78003e0090008a
:104c780090009000210798001b0037003e0090002c
:104c8800100178002e00900010009000800078003d
:104c98005e00900002000100000f78002e009000d6
:104ca800100798001e007800e00f500004003a003a
:104cb8002e009000b0009000210798000a003700ed
:104cc8001e007800e00f500004003d002e00900008
:104cd800a000900021079800030037002e009000e4
:104ce800b0009000210798002e009000e00f5000bf
:104cf800e2ff3a001e007800e00f500005003a007d
:104d0800de0090004e0090007cff0700100798001e
:104d18000e0037001e007800e00f500006003d002e
:104d2800de0090004e00900074ff07009e00900087
:104d3800a000980005003700de0090004e009000ab
:104d48006eff07009e009000b00098001000200041
:104d58000080fa00000006000800fa00200798000a
:104d6800310798002e00900090009000010f780005
:104d7800180037002e009000100178001e007800ff
:104d880010009000800078003e00900002000100b2
:104d9800100798001e009000e00f500003003a0032
:104da8001e007800100078000e0037001e009000ea
:104db800e00f500004003d001e007800a0009000a5
:104dc800010f7800030037001e007800b000900043
:104dd800010f78001e007800e00f5000e5ff3a0050
:104de8000000eb000080fa00000006000400fa0052
:104df800000f7800110798001e0090003000900006
:104e0800e00f500017003a001e007800e00f500035
:104e18000f0032001e007800a00090001e009000d5
:104e2800808f500005003a001e009000a0009000fe
:104e38001e00780021009800080037001e0090002e
:104e4800a00090001e007800310098000300370091
:104e58001e009000a0009000110798001e0090000e
:104e6800200037001e009000000f78001e00900000
:104e7800b0009000110798001e00900020009000dc
:104e8800e00f500006003a001e009000b0009000ad
:104e98001e007800310098001e00900011003700b5
:104ea8001e009000000f7800050037009e0090005b
:104eb800010f78001e009000a000900011079800d4
:104ec8001e00900020009000e00f5000f7ff3a000d
:104ed8001e009000b00090001e007800210098008d
:104ee8001e0090000080fa00000006000c00fa0086
:104ef80040079800510798004e00900090009000dd
:104f080011079800320037004e0090001001780019
:104f18001e00900010009000800078005e00900055
:104f280002000100200798002e009000e00f5000ba
:104f38001b003a001e00900020009000e00f500077
:104f480004003a001e00900030009000e00f50006e
:104f5800100032009e0090001e007800a3ff07009a
:104f6800300798003e009000900078001e009000e6
:104f7800010878003e009000900090001e0090000c
:104f8800110098003e00900032fe0700000000006b
:104f9800120037004e0090002efe07000f00370069
:104fa8001e009000000f78002e009000e00f5000c7
:104fb80004003d001e009000a0009000110798001a
:104fc800030037001e009000b00090001107980001
:104fd8001e009000e00f5000cbff3a001e0090002a
:104fe8000080fa00000006000200fa00000f7800b6
:104ff8001e007800e00f5000090032001e00780003
:1050080020009000f8ff07001e0078003000900094
:10501800f5ff07001e0078000efe070001003700ac
:10502800000000000080fa00000006000200fa00fc
:10503800000f78001e00780010009000e00f50006c
:105048000e0032001e007800100090002000900032
:10505800e5ff07001e007800100090003000900067
:10506800e1ff07001e00780010009000f9fd07001e
:105078001e007800f7fd070001003700000000005f
:085088000080fa0000000600a0
:020000040000fa
:10509000cc17000006000000020000002070f8009d
:1050a0007020000024150000a8020000020000008b
:1050b0000000000000000000000006005f5f060026
:1050c000000000000707000007070000147f7f00b2
:1050d000147f7f0014242e006b6b3a0012004600f0
:1050e000663018000c666200307a4f005d377a0037
:1050f0004804070003000000000000001c3e63009d
:1051000041000000004163003e1c000000082a002e
:105110003e1c1c003e2a0800083e3e000808000015
:105120000080e00060000000000808000808080097
:1051300008000000006060000000000060301800ff
:105140000c060300013e7f0071594d007f3e400078
:10515000427f7f004040000062735900496f660043
:105160000022630049497f00360018001c165300d6
:105170007f7f500027674500457d3900003c7e0059
:105180004b49790030000300037179000f070000dc
:10519000367f4900497f360000064f0049693f00cd
:1051a0001e00000000666600000000000080e600af
:1051b0006600000000081c00366341000000240067
:1051c000242424002424000000416300361c08002d
:1051d0000002030051590f0006003e007f415d00b0
:1051e0005d1f1e007c7e1300137e7c0000417f004b
:1051f0007f4949007f361c003e6341004163220025
:10520000417f7f0041633e001c417f007f495d007c
:10521000416341007f7f49001d0103001c3e630084
:1052200041517300727f7f0008087f007f000000fb
:10523000417f7f004100000030704000417f3f000f
:1052400001417f007f081c00776341007f7f4100a0
:10525000406070007f7f0e001c0e7f007f7f7f000c
:10526000060c18007f7f1c003e634100633e1c005b
:10527000417f7f0049090f00061e3f0021717f001a
:105280005e0041007f7f0900197f6600266f4d0098
:1052900059733200000341007f7f410003007f000b
:1052a0007f4040007f7f00001f3f6000603f1f0085
:1052b000007f7f00301830007f7f4300673c18007c
:1052c0003c674300074f7800784f070000476300b2
:1052d00071594d00677300007f7f4100410000005d
:1052e000010306000c18300060004100417f7f0080
:1052f000000008000c060300060c080080808000f7
:10530000808080008000000003070400000020006f
:10531000745454003c784000417f3f004848780076
:1053200030387c0044446c00280030007848490044
:105330003f7f4000387c5400545c180000487e00d9
:105340007f49030002003800bca4a400fc780000e0
:10535000417f7f0008047c00780044007d7d400090
:1053600000006000e0808000fd7d0000417f7f0044
:1053700010386c00440041007f7f4000000078003e
:105380007c1c38001c7c78007c7c0400047c780049
:1053900000387c0044447c0038000000fcfca40081
:1053a000243c1800183c2400a4f8fc0084447c0031
:1053b000784c04001c1848005c545400742400000d
:1053c00000043e007f442400003c7c0040403c0040
:1053d0007c401c003c6060003c1c00003c7c700079
:1053e00038707c003c446c00381038006c443c0041
:1053f000bca0a000fc7c00004c6474005c4c640009
:10540000000808003e7741004100000000007700de
:1054100077000000414177003e08080000020300c9
:10542000010302000301ff00818181008181ff00ef
:105430000e9f9100b1fb4a00000000002411000003
:105440000004000000000000d2170000020000006d
:1054500000000000d417000002000000000000005f
:105460000008000024090000000000000000000007
:020000040000fa
:105470000400fa000000eb00000f78000000eb00d1
:10548000100798000000eb00000f780013003700b1
:105490000000eb00100798000b0037001e0078009a
:1054a000c700dd001e0090008080400040122100f7
:1054b000808040000040eb00804878001e00900093
:1054c0000000e800100798009e009000f007200000
:1054d000808f5000f1ff34001e0fe8001e0078009e
:1054e000e70f5000eaff34000080fa0000000600d9
:1054f0000800fa002007980031079800ae009000dd
:10550000f0072000808f500003003c002e00900028
:10551000e00f500004003d0002642900f10020006b
:10552000206529000a010700be009000f00320005a
:10553000808f500003003c003e009000e00f5000c0
:1055400004003d00a2662900010120002065290019
:10555000ff000700be0090008000200000017800de
:10556000110009008200d800000f7800be009000f2
:105570008000200000017800110009008200d8009e
:105580008000fd00100798001e007800c700dd00b5
:105590002e009000808040004012210000804000da
:1055a0001040780080407800120020001e0090001b
:1055b0000010dd000040780000c070009e00780000
:1055c0004709dd00ae0090000101410041122100b9
:1055d00081004100804878000080fa000000060049
:1055e0000800fa002007980031079800ae009000ec
:1055f000f0072000808f500003003c002e00900038
:10560000e00f500004003d000264290081012000e9
:1056100020652900ce000700be009000f0032000a6
:10562000808f500003003c003e009000e00f5000cf
:1056300004003d00a2662900910120002065290098
:10564000c3000700be009000800020000001780029
:10565000110009008200d800000f7800be00900001
:105660008000200000017800110009008200d800ad
:105670008000fd00100798001e007800c700dd00c4
:105680002e009000808040004012210000804000e9
:105690001040780080407800120020001e0090002a
:1056a0000010dd000040780000c0ea0000c060008b
:1056b0009e0078004709dd00ae0090000101410026
:1056c0004112210081004100804878000080fa00ea
:1056d000000006001000fa0030079800410798000b
:1056e0005207980063079800740798000000eb00c9
:1056f00010079800280037000000eb00000f78002a
:105700001e0037000000eb0020079800170037004c
:105710003e0090001e004000104078008080fb009a
:105720002e009000670010000088de00610060001d
:1057300000407800e04f5000090032009e009000c9
:105740002e009000808040006e009000008040009d
:10575000800078007e0090001e00400064ff07007b
:105760002e0090000000e800200798002e00900016
:10577000e70f5000e6ff36001e0fe8005e009000c5
:105780009e007800808f5000deff39001e009000e0
:105790000000e800100798009e0090004e00900066
:1057a000808f5000d4ff39000080fa00000006000e
:1057b0000000fa000080eb00601988000000eb0098
:1057c000401688000000eb00601688000000eb0027
:1057d000000388000000eb00100388006040a80070
:1057e0006060a80063a0a80063c0a800ad80a80006
:1057f000ada0a900adc0a9008660a9009660a80070
:105800000040eb00d4f7b7000000eb002008880050
:105810000000eb000008880000002200100888004b
:1058200021058000f0ff2800808060000000250036
:1058300000807000200588008460a9009460a800a2
:1058400021088000000320000080700020088800ec
:1058500005e1a8000080fa00000006000a00fa0036
:105860002007980031079800420798002e0090000a
:10587000000f78000000eb001007980009003700c7
:105880009e007800a00020000001780011000900af
:105890008200d800000f78001e0090000000e80091
:1058a000100798001e007800e00f5000f4ff3a0047
:1058b0009e0090004e009000808f50000400350044
:1058c000c267290001052000506829002000070058
:1058d0001e009000be00900000804000300798003d
:1058e000be0090000040eb008048780013003700b5
:1058f0003e0090000000e90030079800ae009000e4
:10590000a000200000017800110009008200d800ea
:105910008000fd00004078000043b000be00900011
:1059200080487800ae009000a000200000017800c0
:10593000110009008200d800200798002e00900076
:10594000e00f5000eaff3a000080fa000000060075
:105950000e00fa004007980051079800620798006f
:10596000720020008e0078005e009000bbff0700f0
:10597000faf80700c36829000041eb008040eb0003
:10598000405221004bfa0700b36929000041eb00a7
:1059900021c0b3004052210046fa0700ce0190001a
:1059a00072c3b30021c0b3004052210041fa070086
:1059b000136a29000041eb0031c0b30040522100be
:1059c0003cfa07008e01780072c3b30031c0b30007
:1059d0004052210037fa0700ee0190000041eb0031
:1059e00041c0b3004052210032fa0700ffff3700e8
:1059f0000600fa00200798000000eb00000f780076
:105a00000e003700000000000000eb0010079800b7
:105a10000500370000000000000000001e0090009c
:105a20000000e800100798009e009000404720000a
:105a3000808f5000f7ff36001e0fe8002e00900008
:105a40009e007800808f5000eeff36000080fa0044
:105a5000000006000400fa001bfc070054ff0700ca
:105a600091c1b30010c8b3006cf80700bbf8070081
:105a70007ffe070063f80700a3002000a2002000bb
:105a800031022000200320005ef60700000f78009e
:105a90001e007800bdf60700a3002000a200200031
:105aa000310220005000200056f607001007980031
:105ab0001e009000b5f60700cde2a9006016800038
:105ac0004f00de00004078000080fb0061006000b5
:105ad0004e00dd0062168000f1ff2b0081006100a6
:105ae000008070006016880004c8b30083c0b30053
:105af0000041eb008040eb00401221001ef907003e
:105b0000010037000000000010002000b8ff07006f
:105b1000a0be800068006000e00f50000900320065
:105b20001e00780040f7070004c8b30083c0b3002c
:105b30000041eb008040eb00401221000ef907000d
:105b4000f1ff3700a0be800064006000e00f50004d
:105b5000ecff32001e00780003f7070004c8b30012
:105b600083c0b3000041eb008040eb0040122100f5
:085b700001f90700e4ff370012
:020000040000fa
:105b7800809fbe00821f78000000fa008660a9009e
:105b880010168000004078006140600000c0ea0004
:105b9800614060000080fb0061006000a2be8000e0
:105ba800e1ff2f008100610000807000a0be880026
:105bb800101680000000d1006140600000c0ea00bb
:105bc800614060000080fb00610060000000400050
:105bd800a2be8000d1ff2f0081006100008070000c
:105be800a0be8800101680004200de006140600000
:105bf80000c0ea00614060000080fb0061006000b6
:105c08004200dd00a2be8000b1ff2f0081006100cc
:105c180000807000a0be8800101680004300de00df
:105c28006140600000c0ea00614060000080fb0045
:105c3800610060004300dd00a2be800071ff2f00fc
:105c48008100610000807000a0be88000080fa001a
:105c58004f0178004f00be00004006000000fa0027
:105c68008460a9000080fa00004006000000fa00e5
:105c78008020a900ffff37000000fa008060a9001b
:105c8800ffff37000000fa008040a900ffff37003f
:105c98000000fa008080a900ffff37000000fa002a
:105ca8008020a900ffff37000000fa008060a900eb
:105cb800ffff37000000fa008040a900ffff37000f
:105cc8000000fa008080a900ffff37000000fa00fa
:045cd800ffff370093
:020000040000fa
:0c5cdc000000fa000080fa000000060042
:00000001FF
